{
  "_format": "hh3-artifact-1",
  "contractName": "Lottery",
  "sourceName": "contracts/Lottery.sol",
  "abi": [
    {
      "inputs": [],
      "stateMutability": "nonpayable",
      "type": "constructor"
    },
    {
      "inputs": [],
      "name": "enter",
      "outputs": [],
      "stateMutability": "payable",
      "type": "function"
    },
    {
      "inputs": [],
      "name": "getPlayersCount",
      "outputs": [
        {
          "internalType": "uint256",
          "name": "",
          "type": "uint256"
        }
      ],
      "stateMutability": "view",
      "type": "function"
    },
    {
      "inputs": [],
      "name": "manager",
      "outputs": [
        {
          "internalType": "address",
          "name": "",
          "type": "address"
        }
      ],
      "stateMutability": "view",
      "type": "function"
    },
    {
      "inputs": [],
      "name": "pickWinner",
      "outputs": [],
      "stateMutability": "nonpayable",
      "type": "function"
    },
    {
      "inputs": [
        {
          "internalType": "uint256",
          "name": "",
          "type": "uint256"
        }
      ],
      "name": "players",
      "outputs": [
        {
          "internalType": "address",
          "name": "",
          "type": "address"
        }
      ],
      "stateMutability": "view",
      "type": "function"
    }
  ],
  "bytecode": "0x6080604052348015600e575f5ffd5b505f80546001600160a01b031916331790556104648061002d5f395ff3fe608060405260043610610049575f3560e01c8063481c6a751461004d5780635d495aea14610088578063a76594bf1461009e578063e97dcb62146100bb578063f71d96cb146100c3575b5f5ffd5b348015610058575f5ffd5b505f5461006b906001600160a01b031681565b6040516001600160a01b0390911681526020015b60405180910390f35b348015610093575f5ffd5b5061009c6100e2565b005b3480156100a9575f5ffd5b5060015460405190815260200161007f565b61009c61022a565b3480156100ce575f5ffd5b5061006b6100dd366004610397565b6102c2565b5f546001600160a01b0316331461014b5760405162461bcd60e51b815260206004820152602260248201527f4f6e6c7920746865206d616e616765722063616e207069636b20612077696e6e60448201526132b960f11b60648201526084015b60405180910390fd5b60015461019a5760405162461bcd60e51b815260206004820152601960248201527f4e6f20706c617965727320696e20746865206c6f7474657279000000000000006044820152606401610142565b6001545f906101a76102ea565b6101b191906103ae565b90505f600182815481106101c7576101c76103cd565b5f9182526020822001546040516001600160a01b03909116925082914780156108fc02929091818181858888f19350505050158015610208573d5f5f3e3d5ffd5b50604080515f815260208101918290525161022591600191610320565b505050565b662386f26fc1000034116102805760405162461bcd60e51b815260206004820152601f60248201527f4d696e696d756d20656e7472792066656520697320302e3031206574686572006044820152606401610142565b6001805480820182555f919091527fb10e2d527612073b26eecdfd717e6a320cf44b4afac2b0732d9fcbe2b7fa0cf60180546001600160a01b03191633179055565b600181815481106102d1575f80fd5b5f918252602090912001546001600160a01b0316905081565b5f5f44426001604051602001610302939291906103e1565b60408051601f19818403018152919052805160209091012092915050565b828054828255905f5260205f20908101928215610373579160200282015b8281111561037357825182546001600160a01b0319166001600160a01b0390911617825560209092019160019091019061033e565b5061037f929150610383565b5090565b5b8082111561037f575f8155600101610384565b5f602082840312156103a7575f5ffd5b5035919050565b5f826103c857634e487b7160e01b5f52601260045260245ffd5b500690565b634e487b7160e01b5f52603260045260245ffd5b8381528260208201525f604082018354845f5260205f205f5b828110156104215781546001600160a01b03168452602090930192600191820191016103fa565b509197965050505050505056fea264697066735822122072a4f29cb6178e0bdc4789380bc1a46158a08aeca25e869836037b7b7eab84eb64736f6c634300081c0033",
  "linkReferences": {},
  "deployedLinkReferences": {},
  "immutableReferences": {},
  "inputSourceName": "project/contracts/Lottery.sol",
  "buildInfoId": "solc-0_8_28-5378a9387eeab716a2f1fe7e6ccbb1aa12ebadd9"
}