{
    "contractName": "Lottery",
    "abi": [
        {
            "inputs": [],
            "stateMutability": "nonpayable",
            "type": "constructor"
        },
        {
            "inputs": [],
            "name": "enter",
            "outputs": [],
            "stateMutability": "payable",
            "type": "function"
        },
        {
            "inputs": [],
            "name": "getPlayers",
            "outputs": [
                {
                    "internalType": "address[]",
                    "name": "",
                    "type": "address[]"
                }
            ],
            "stateMutability": "view",
            "type": "function"
        },
        {
            "inputs": [],
            "name": "getPlayersCount",
            "outputs": [
                {
                    "internalType": "uint256",
                    "name": "",
                    "type": "uint256"
                }
            ],
            "stateMutability": "view",
            "type": "function"
        },
        {
            "inputs": [],
            "name": "manager",
            "outputs": [
                {
                    "internalType": "address",
                    "name": "",
                    "type": "address"
                }
            ],
            "stateMutability": "view",
            "type": "function"
        },
        {
            "inputs": [],
            "name": "pickWinner",
            "outputs": [],
            "stateMutability": "nonpayable",
            "type": "function"
        },
        {
            "inputs": [
                {
                    "internalType": "uint256",
                    "name": "",
                    "type": "uint256"
                }
            ],
            "name": "players",
            "outputs": [
                {
                    "internalType": "address",
                    "name": "",
                    "type": "address"
                }
            ],
            "stateMutability": "view",
            "type": "function"
        }
    ],
    "bytecode": "608080604052346026575f80546001600160a01b03191633179055610509908161002b8239f35b5f80fdfe6080806040526004361015610012575f80fd5b5f3560e01c908163481c6a7514610443575080635d495aea146102265780638b5b9ccc14610171578063a76594bf14610154578063e97dcb62146100a45763f71d96cb1461005e575f80fd5b346100a05760203660031901126100a0576004356001548110156100a057610087602091610465565b905460405160039290921b1c6001600160a01b03168152f35b5f80fd5b5f3660031901126100a057662386f26fc1000034111561010f57600154600160401b8110156100fb578060016100dd9201600155610465565b81546001600160a01b0360039290921b91821b19163390911b179055005b634e487b7160e01b5f52604160045260245ffd5b60405162461bcd60e51b815260206004820152601f60248201527f4d696e696d756d20656e7472792066656520697320302e3031206574686572006044820152606490fd5b346100a0575f3660031901126100a0576020600154604051908152f35b346100a0575f3660031901126100a0576040518060206001549283815201809260015f525f5160206104b45f395f51905f52905f5b81811061020757505050816101bc910382610491565b604051918291602083019060208452518091526040830191905f5b8181106101e5575050500390f35b82516001600160a01b03168452859450602093840193909201916001016101d7565b82546001600160a01b03168452602090930192600192830192016101a6565b346100a0575f3660031901126100a0575f546001600160a01b031633036103f35760015480156103ae5760405160208101904482524260408201526060810160015f525f5160206104b45f395f51905f525f5b85811061038f575f8080806102a68a8a8a61029d818c03601f198101835282610491565b51902006610465565b9054479160031b1c6001600160a01b0316828215610386575bf11561037b5760206040516102d5602082610491565b5f81525f36813780519067ffffffffffffffff82116100fb57600160401b82116100fb5760015482600155808310610343575b5060200160015f525f5b82811061031b57005b81516001600160a01b03165f5160206104b45f395f51905f5282015590830190600101610312565b5f5160206104b45f395f51905f5201825f5160206104b45f395f51905f52015b8181106103705750610308565b5f8155600101610363565b6040513d5f823e3d90fd5b506108fc6102bf565b81546001600160a01b0316835260209092019160019182019101610279565b60405162461bcd60e51b815260206004820152601960248201527f4e6f20706c617965727320696e20746865206c6f7474657279000000000000006044820152606490fd5b60405162461bcd60e51b815260206004820152602260248201527f4f6e6c7920746865206d616e616765722063616e207069636b20612077696e6e60448201526132b960f11b6064820152608490fd5b346100a0575f3660031901126100a0575f546001600160a01b03168152602090f35b60015481101561047d5760015f5260205f2001905f90565b634e487b7160e01b5f52603260045260245ffd5b90601f8019910116810190811067ffffffffffffffff8211176100fb5760405256feb10e2d527612073b26eecdfd717e6a320cf44b4afac2b0732d9fcbe2b7fa0cf6a2646970667358221220f81ce9dbb67998c98bca7663831724a1ebe5cceaba9c3722fae60bc356b359dc64736f6c634300081e0033",
    "sourcePath": "d:/courses/blockchain/lottery/lottery/contracts/Lottery.sol",
    "compiler": {
        "name": "solc",
        "version": "0.8.30+commit.73712a01"
    },
    "functionHashes": {
        "enter()": "e97dcb62",
        "getPlayers()": "8b5b9ccc",
        "getPlayersCount()": "a76594bf",
        "manager()": "481c6a75",
        "pickWinner()": "5d495aea",
        "players(uint256)": "f71d96cb"
    },
    "gasEstimates": {
        "creation": {
            "codeDepositCost": "257800",
            "executionCost": "24540",
            "totalCost": "282340"
        },
        "external": {
            "enter()": "50949",
            "getPlayers()": "infinite",
            "getPlayersCount()": "2322",
            "manager()": "2265",
            "pickWinner()": "infinite",
            "players(uint256)": "6740"
        },
        "internal": {
            "random()": "infinite"
        }
    }
}