{
    "contractName": "Lottery",
    "abi": [
        {
            "inputs": [],
            "stateMutability": "nonpayable",
            "type": "constructor"
        },
        {
            "inputs": [],
            "name": "enter",
            "outputs": [],
            "stateMutability": "payable",
            "type": "function"
        },
        {
            "inputs": [],
            "name": "manager",
            "outputs": [
                {
                    "internalType": "address",
                    "name": "",
                    "type": "address"
                }
            ],
            "stateMutability": "view",
            "type": "function"
        },
        {
            "inputs": [],
            "name": "pickWinner",
            "outputs": [],
            "stateMutability": "nonpayable",
            "type": "function"
        },
        {
            "inputs": [
                {
                    "internalType": "uint256",
                    "name": "",
                    "type": "uint256"
                }
            ],
            "name": "players",
            "outputs": [
                {
                    "internalType": "address",
                    "name": "",
                    "type": "address"
                }
            ],
            "stateMutability": "view",
            "type": "function"
        }
    ],
    "bytecode": "608080604052346026575f80546001600160a01b03191633179055610421908161002b8239f35b5f80fdfe6080806040526004361015610012575f80fd5b5f3560e01c908163481c6a751461035b575080635d495aea1461013e578063e97dcb621461008e5763f71d96cb14610048575f80fd5b3461008a57602036600319011261008a5760043560015481101561008a5761007160209161037d565b905460405160039290921b1c6001600160a01b03168152f35b5f80fd5b5f36600319011261008a57662386f26fc100003411156100f957600154600160401b8110156100e5578060016100c7920160015561037d565b81546001600160a01b0360039290921b91821b19163390911b179055005b634e487b7160e01b5f52604160045260245ffd5b60405162461bcd60e51b815260206004820152601f60248201527f4d696e696d756d20656e7472792066656520697320302e3031206574686572006044820152606490fd5b3461008a575f36600319011261008a575f546001600160a01b0316330361030b5760015480156102c65760405160208101904482524260408201526060810160015f525f5160206103cc5f395f51905f525f5b8581106102a7575f8080806101be8a8a8a6101b5818c03601f1981018352826103a9565b5190200661037d565b9054479160031b1c6001600160a01b031682821561029e575bf1156102935760206040516101ed6020826103a9565b5f81525f36813780519067ffffffffffffffff82116100e557600160401b82116100e5576001548260015580831061025b575b5060200160015f525f5b82811061023357005b81516001600160a01b03165f5160206103cc5f395f51905f528201559083019060010161022a565b5f5160206103cc5f395f51905f5201825f5160206103cc5f395f51905f52015b8181106102885750610220565b5f815560010161027b565b6040513d5f823e3d90fd5b506108fc6101d7565b81546001600160a01b0316835260209092019160019182019101610191565b60405162461bcd60e51b815260206004820152601960248201527f4e6f20706c617965727320696e20746865206c6f7474657279000000000000006044820152606490fd5b60405162461bcd60e51b815260206004820152602260248201527f4f6e6c7920746865206d616e616765722063616e207069636b20612077696e6e60448201526132b960f11b6064820152608490fd5b3461008a575f36600319011261008a575f546001600160a01b03168152602090f35b6001548110156103955760015f5260205f2001905f90565b634e487b7160e01b5f52603260045260245ffd5b90601f8019910116810190811067ffffffffffffffff8211176100e55760405256feb10e2d527612073b26eecdfd717e6a320cf44b4afac2b0732d9fcbe2b7fa0cf6a26469706673582212203885005d93dd089fa77f0f1c723c3b61d2d09a744d821dca0b2de5fa80b59cce64736f6c634300081e0033",
    "sourcePath": "d:/courses/blockchain/lottery/contracts/Lottery.sol",
    "compiler": {
        "name": "solc",
        "version": "0.8.30+commit.73712a01"
    },
    "functionHashes": {
        "enter()": "e97dcb62",
        "manager()": "481c6a75",
        "pickWinner()": "5d495aea",
        "players(uint256)": "f71d96cb"
    },
    "gasEstimates": {
        "creation": {
            "codeDepositCost": "211400",
            "executionCost": "24497",
            "totalCost": "235897"
        },
        "external": {
            "enter()": "50905",
            "manager()": "2265",
            "pickWinner()": "infinite",
            "players(uint256)": "6696"
        },
        "internal": {
            "random()": "infinite"
        }
    }
}